:020000040800F2
:1000000000000220F107000841060008430600082E
:1000100045060008470600084906000800000000E1
:100020000000000000000000000000004B06000877
:100030004D060008000000004F06000851060008A9
:10004000410800084108000841080008410800086C
:10005000410800084108000841080008410800085C
:10006000410800084108000841080008410800084C
:10007000410800084108000841080008410800083C
:10008000410800084108000841080008000000007D
:10009000000000000000000000000000410800080F
:1000A000410800084108000841080008410800080C
:1000B00041080008410800084108000841080008FC
:1000C00041080008410800084108000841080008EC
:1000D000410800084108000841080008000000002D
:1000E000410800084108000841080008000000001D
:1000F00000000000000000000000000041080008AF
:1001000000000000410800084108000841080008FC
:1001100000000000000000000000000000000000DF
:10012000410800084108000841080008410800088B
:10013000410800080000000000000000000000006E
:10014000000000000000000000000000410800085E
:10015000410800084108000841080008410800085B
:1001600041080008410800080000000000000000ED
:10017000000000000000000000000000000000007F
:10018000000000004108000800000000000000001E
:080190004108000841080008C5
:1001980010B5054C237833B9044B13B10448AFF3B9
:1001A80000800123237010BD3C04002000000000E3
:1001B800F417000808B5034B1BB103490348AFF314
:1001C800008008BD0000000040040020F41700086B
:1001D80053B94AB9002908BF00281CBF4FF0FF31A6
:1001E8004FF0FF3000F074B9ADF1080C6DE904CEA2
:1001F80000F006F8DDF804E0DDE9022304B07047FA
:100208002DE9F047089E0D4604468846002B4DD13F
:100218008A42944668D9B2FA82F252B101FA02F3DC
:10022800C2F1200120FA01F10CFA02FC41EA0308AC
:1002380094404FEA1C45210CB8FBF5FE1FFA8CF7D9
:1002480005FB1E8341EA03430EFB07F199420BD9D4
:100258001CEB03030EF1FF3080F01E81994240F23F
:100268001B81AEF1020E63445B1AA4B2B3FBF5F036
:1002780005FB103344EA034400FB07F7A7420AD9F9
:100288001CEB040400F1FF3380F00881A74240F220
:10029800058164440238E41B40EA0E4000211EB187
:1002A800D4400023C6E90043BDE8F0878B4208D953
:1002B800002E00F0EE800021C6E900050846BDE8E2
:1002C800F087B3FA83F100294AD1AB4202D38242C4
:1002D80000F2F980841A65EB030301209846002E8A
:1002E800E2D0C6E90048DFE702B9FFDEB2FA82F2DF
:1002F800002A40F09180A1EB0C054FEA1C471FFA39
:100308008CFE0121B5FBF7F307FB1350250C45EADA
:1003180000450EFB03F0A84208D91CEB050503F1C4
:10032800FF3802D2A84200F2CB8043462D1AA4B26D
:10033800B5FBF7F007FB105544EA05440EFB00FE39
:10034800A64508D91CEB040400F1FF3502D2A645E6
:1003580000F2BB802846A4EB0E0440EA03409EE767
:10036800C1F120078B4022FA07FC4CEA030C20FA63
:1003780007F405FA01F31C43FD404FEA1C4900FA53
:1003880001F3B5FBF9F8200C1FFA8CFE09FB185590
:1003980040EA054508FB0EF0A84202FA01F20BD923
:1003A8001CEB050508F1FF3A80F08880A84240F26E
:1003B8008580A8F1020865442D1AA4B2B5FBF9F0AE
:1003C80009FB105544EA054500FB0EFEAE4508D969
:1003D8001CEB050500F1FF346CD2AE456AD9023832
:1003E800654440EA0840A0FB0294A5EB0E05A5422F
:1003F800C846A64656D353D05EB1B3EB080265EBA8
:100408000E0505FA07F722FA01F3CD401F43C6E9A6
:1004180000750021BDE8F087C2F1200320FA03F13E
:100428000CFA02FC25FA03F395400D434FEA1C47EA
:100438001FFA8CFEB3FBF7F107FB11302B0C43EAD4
:10044800004301FB0EF0984204FA02F408D91CEBB1
:10045800030301F1FF382FD298422DD902396344A2
:100468001B1AADB2B3FBF7F007FB103345EA03459F
:1004780000FB0EF3AB4208D91CEB050500F1FF3871
:1004880016D2AB4214D902386544ED1A40EA01414C
:1004980038E73146304607E78646E5E61846FAE685
:1004A8004B45A9D2B9EB020864EB0C0E0138A3E75F
:1004B8004046EAE7204694E74146D1E7D0467BE745
:1004C800023B654432E7084609E76444023842E7DC
:1004D800704700BF84B000220092154B196B41F0A1
:1004E80004011963196B01F004010091009901924C
:1004F800196B41F080011963196B01F080010191BA
:1005080001990292196B41F001011963196B01F00D
:1005180001010291029903921A6B42F002021A63D6
:100528001B6B03F002030393039B04B0704700BFE7
:100538000038024072B6FEE700B595B030220021BF
:1005480008A801F091F800230393049305930693F8
:10055800079301931E4A116C41F080511164126C8B
:1005680002F080520192019A02931A4A116841F4EA
:1005780040411160126802F440420292029A02223B
:10058800089201210B9110210C910E920F930823D0
:1005980010936423119312920423139308A800F074
:1005A800DDFA88B90F2303930223049300230593EC
:1005B8004FF4805206920793032103A800F01CFD14
:1005C80020B915B05DF804FBFFF7B4FFFFF7B2FFE1
:1005D800003802400070004008B500F055F9FFF7F8
:1005E800ABFFFFF777FF00F07BF8044B1B684FF475
:1005F800FA725A639A63DA631A64F6E758040020B9
:1006080082B0002100910B4B5A6C42F480425A642C
:100618005A6C02F480420092009A01911A6C42F0DE
:1006280080521A641B6C03F080530193019B02B043
:10063800704700BF00380240FEE7FEE7FEE7FEE72E
:10064800FEE770477047704708B500F037F908BDF6
:10065800704700000268094B9A4200D0704782B088
:1006680000230193064B5A6C42F001025A645B6CFA
:1006780003F001030193019B02B0704700000140A1
:100688000038024000B587B000230193029303931A
:100698000493059302680F4B9A4202D007B05DF8A5
:1006A80004FB002300930C4B1A6B42F001021A63FF
:1006B8001B6B03F001030093009B4FF470630193DD
:1006C800022302930123059301A9044800F066F967
:1006D800E4E700BF0000014000380240000002408B
:1006E80010B592B000241094119409940A940B94B4
:1006F8000C940D940E940F942022214601A800F02A
:10070800B3FF3748374B0360F923436084604FF4E5
:100718007A73C360046144618023836100F01CFE26
:10072800002844D12E4800F0EBFD002842D10023D8
:100738001093119310A92A4800F00AFF00283CD111
:100748006023099300220A920B920C920D920E924A
:100758000F9209A9224800F08CFE002830D104220B
:1007680009A91F4800F085FE68BB082209A91C4892
:1007780000F07FFE50BB002309930C2209A91848FA
:1007880000F048FE28BB00230193029303930493CF
:1007980005934FF400520692089301A9104800F0FF
:1007A80015FFC8B90E48FFF76DFF12B010BDFFF76F
:1007B800C1FEB7E7FFF7BEFEB9E7FFF7BBFEBFE72D
:1007C800FFF7B8FECBE7FFF7B5FECEE7FFF7B2FEBF
:1007D800D1E7FFF7AFFED6E7FFF7ACFEE2E700BFD1
:1007E8005804002000000140DFF834D00D480E49BD
:1007F8000E4A002302E0D458C4500433C4188C4273
:10080800F9D30B4A0B4C002301E013600432A242D7
:10081800FBD3FFF71DFF00F003FFFFF7DDFE704776
:1008280000000220000000203C04002034180008CA
:100838003C040020A8040020FEE7000010B5044690
:100848000E4B18784FF47A73B3FBF0F30C4A106828
:10085800B0FBF3F000F08EF868B90F2C01D9012035
:100868000AE0002221464FF0FF3000F04BF8054B1C
:100878001C60002000E0012010BD00BF0400002023
:10088800000000200800002008B50B4B1A6842F44D
:1008980000721A601A6842F480621A601A6842F498
:1008A80080721A60032000F01BF80020FFF7C6FFD3
:1008B800FFF7A6FE002008BD003C0240034A11686D
:1008C800034B1B780B441360704700BFA004002043
:1008D80004000020014B1868704700BFA0040020E6
:1008E800074AD36823F4E0631B041B0C000200F4DE
:1008F800E060034343F0BF6343F40033D3607047C1
:1009080000ED00E000B5194BDB68C3F30223C3F127
:10091800070CBCF1040F28BF4FF0040C03F1040EC0
:10092800BEF1060F18D9033B4FF0FF3E0EFA0CFC40
:1009380021EA0C0199400EFA03F322EA0303194352
:1009480000280BDB0901C9B200F1604000F56140E5
:1009580080F800135DF804FB0023E5E700F00F00C2
:100968000901C9B2024B1954F4E700BF00ED00E0D9
:1009780014ED00E00138B0F1807F0BD24FF0E02396
:100988005861054AF02182F8231000209861072257
:100998001A6170470120704700ED00E000230F2B1B
:1009A80000F2D28070B582B060E085685E000324F2
:1009B800B44025EA0405CC68B4402C4384604568FB
:1009C80025EA02054C68C4F300129A402A434260A3
:1009D8005AE0DC08083450F8246003F00702950058
:1009E8000F22AA4026EA020E0A69AA4042EA0E022B
:1009F80040F824205CE0042200E0002202FA0EF213
:100A08002A430234514D45F82420514A14686FEAAC
:100A18000C0224EA0C054E6816F4803F01D04CEA1B
:100A280004054B4C2560646802EA04054E6816F418
:100A3800003F01D04CEA0405454C6560A46802EA11
:100A480004054E6816F4801F01D04CEA0405404C9A
:100A5800A560E46822404D6815F4001F01D04CEAF7
:100A680004023B4CE26001330F2B6BD801229A4001
:100A78000C6804EA020C32EA0404F4D14C6804F06D
:100A88000304013C012C90D94A6802F00302032AAE
:100A980009D0C4685D000322AA4024EA02048A68D7
:100AA800AA402243C2604A6802F00302022A90D098
:100AB80004684FEA430E032202FA0EF224EA020403
:100AC8004A6802F0030202FA0EF2224302604A6800
:100AD80012F4403FC7D0002201921E4A546C44F4DD
:100AE80080445464526C02F480420192019A9C083A
:100AF800A51C164A52F8255003F003024FEA820E4D
:100B08000F2202FA0EF225EA0205134A90423FF438
:100B180074AF02F5806290420ED002F58062904276
:100B28000CD002F5806290420AD002F580629042B1
:100B38003FF461AF072261E701225FE702225DE728
:100B480003225BE702B070BD704700BF0038014068
:100B5800003C01400038024000000240002800F03C
:100B6800E08170B582B00446036813F0010F3BD0F2
:100B78009F4B9B6803F00C03042B2CD09C4B9B6869
:100B880003F00C03082B21D06368B3F5803F4FD0E6
:100B9800B3F5A02F52D0964B1A6822F480321A600F
:100BA8001A6822F480221A606368002B50D0FFF77D
:100BB80091FE05468E4B1B6813F4003F14D1FFF7D6
:100BC80089FE401B6428F5D90320B1E1884B5B6896
:100BD80013F4800FD8D0864B1B6813F4003F03D062
:100BE8006368002B00F09F81236813F0020F54D034
:100BF8007F4B9B6813F00C0F3ED07D4B9B6803F036
:100C08000C03082B33D0E368002B68D0794B012202
:100C18001A60FFF75FFE0546754B1B6813F0020F5D
:100C280054D1FFF757FE401B0228F5D903207FE176
:100C38006F4A136843F480331360B5E76C4B1A6846
:100C480042F480221A601A6842F480321A60ABE7D4
:100C5800FFF740FE0546664B1B6813F4003FC3D000
:100C6800FFF738FE401B6428F5D9032060E1604B8C
:100C78005B6813F4800FC6D15D4B1B6813F0020F3D
:100C880003D0E368012B40F05081594A136823F0E0
:100C9800F803216943EAC1031360236813F0080FBE
:100CA80042D063696BB3534B0122C3F8802EFFF720
:100CB80011FE05464E4B5B6F13F0020F34D1FFF760
:100CC80009FE401B0228F5D9032031E1484A136880
:100CD80023F0F803216943EAC1031360DDE7454BBC
:100CE80000221A60FFF7F6FD0546414B1B6813F01A
:100CF800020FD2D0FFF7EEFD401B0228F5D90320E2
:100D080016E13C4B0022C3F8802EFFF7E3FD0546B1
:100D1800374B5B6F13F0020F06D0FFF7DBFD401B6C
:100D28000228F5D9032003E1236813F0040F77D0D4
:100D38002F4B1B6C13F0805F33D1002301932C4B96
:100D48001A6C42F080521A641B6C03F080530193B2
:100D5800019B0125284B1B6813F4807F23D0A368CF
:100D6800012B34D0052B38D0214B1A6F22F0010209
:100D78001A671A6F22F004021A67A368002B3DD085
:100D8800FFF7A8FD06461A4B1B6F13F0020F46D15A
:100D9800FFF7A0FD801B41F288339842F3D9032066
:100DA800C6E00025D6E7144A136843F4807313603D
:100DB800FFF790FD0646104B1B6813F4807FCED1D9
:100DC800FFF788FD801B0228F5D90320B0E0084A08
:100DD800136F43F001031367CFE7054B1A6F42F017
:100DE80004021A671A6F42F001021A67C5E700BFCA
:100DF800003802400000474200700040FFF76AFDDB
:100E08000646524B1B6F13F0020F08D0FFF762FD26
:100E1800801B41F288339842F3D9032088E0EDB96A
:100E2800A369002B00F08380484A926802F00C0204
:100E3800082A51D0022B17D0454B00221A66FFF71B
:100E480049FD0446414B1B6813F0007F42D0FFF771
:100E580041FD001B0228F5D9032069E03B4A136CC9
:100E680023F080531364DBE7394B00221A66FFF73F
:100E780031FD0546354B1B6813F0007F06D0FFF7A0
:100E880029FD401B0228F5D9032051E0E369226AB5
:100E98001343626A43EA8213A26A5208013A43EA98
:100EA8000243E26A43EA0263284A5360284B01225C
:100EB8001A66FFF70FFD0446244B1B6813F0007FEA
:100EC80006D1FFF707FD001B0228F5D903202FE004
:100ED80000202DE000202BE0012B2BD01B4B5B6862
:100EE80003F48001E269914226D103F03F02216AAE
:100EF8008A4223D1616A47F6C0721A40B2EB811F59
:100F08001ED103F44031A26A5208013AB1EB024FF4
:100F180018D103F07063E26AB3EB026F14D10020BA
:100F280006E001207047012002E0012000E00020D7
:100F380002B070BD0120FBE70120F9E70120F7E7C7
:100F48000120F5E70120F3E70120F1E7003802402E
:100F58000000474208B5254B9B6803F00C03042B9F
:100F68003FD0082B3FD1214B5A6802F03F025B6803
:100F780013F4800F12D01D4B5968C1F388111C4817
:100F88000023A1FB0001FFF723F9184B5B68C3F3AB
:100F9800014301335B00B0FBF3F025E0134B5968C4
:100FA800C1F3881C4FEA4C11B1EB0C006EEB0E0E2E
:100FB8004FEA8E1343EA90638101091A63EB0E032B
:100FC800DB0043EA5173C90011EB0C0C43F1000339
:100FD800990200234FEA8C2041EA9C51FFF7F8F868
:100FE800D3E7034800E0034808BD00BF00380240CB
:100FF80040787D010024F400002800F09B8070B543
:101008000D4604464F4B1B6803F007038B4208D27A
:10101800CBB24C4A1370136803F007038B4240F0BD
:101028008B80236813F0020F17D013F0040F04D03D
:10103800454A936843F4E0539360236813F0080F1C
:1010480004D0414A936843F4604393603E4A9368EE
:1010580023F0F003A1680B439360236813F0010F9A
:1010680032D06368012B21D09A1E012A25D9364A2D
:10107800126812F0020F61D033498A6822F0030225
:1010880013438B60FFF726FC06462F4B9B6803F043
:101098000C036268B3EB820F16D0FFF71BFC801BB2
:1010A80041F288339842F0D9032042E0264A126878
:1010B80012F4003FE0D101203BE0234A126812F00D
:1010C800007FD9D1012034E01E4B1B6803F00703D1
:1010D800AB4207D9EAB21B4B1A701B6803F007032F
:1010E800AB422DD1236813F0040F06D0164A93683B
:1010F80023F4E053E1680B439360236813F0080F6F
:1011080007D0114A936823F46043216943EAC10375
:101118009360FFF71FFF0C4B9B68C3F303130B4A45
:10112800D35CD8400A4B18600A4B1868FFF786FB57
:10113800002070BD012070470120FAE70120F8E780
:101148000120F6E7003C0240003802400C18000875
:10115800000000200800002070B4036A23F0010397
:101168000362036A4668826922F073020C6844EAE3
:10117800020523F002028B6813430D4CA04209D0EC
:101188000B4CA0420DD0466085614A6842630362F9
:1011980070BC704723F00803CA68134323F00403A4
:1011A800EEE726F440764A6932438E691643EAE749
:1011B8000000014030B4036A23F480730362036AB9
:1011C8004568C26922F073020C68224323F4007355
:1011D8008C6843EA04230F4CA04209D00D4CA0426E
:1011E8000ED04560C2614A68C263036230BC704772
:1011F80023F40063CC6843EA042323F48063EDE717
:1012080025F440554C6945EA04158C6945EA0415EE
:10121800E7E700BF0000014030B4036A23F48053BD
:101228000362036A4468C26922F4E6420D6842EA2E
:10123800052223F400538D6843EA0533074DA8427D
:1012480006D04460C2614A680264036230BC7047D9
:1012580024F480444D6944EA8514F2E70000014013
:10126800704700000368254A90420ED0B0F1804FC5
:101278000BD0A2F57C42904207D002F580629042E2
:1012880003D002F58062904203D123F070034A68CC
:1012980013431A4A90421AD0B0F1804F17D0A2F5E2
:1012A8007C42904213D002F5806290420FD002F542
:1012B800806290420BD002F59A32904207D002F534
:1012C8008062904203D002F58062904203D123F4F9
:1012D8004073CA68134323F080034A6913430360C9
:1012E8008B68C3620B688362044B984202D0012367
:1012F800436170470B690363F9E700BF00000140D1
:1013080040B310B5044690F83D30F3B1022384F899
:101318003D30214651F8040BFFF7A4FF012384F860
:10132800463084F83E3084F83F3084F8403084F802
:10133800413084F8423084F8433084F8443084F8EB
:10134800453084F83D30002010BD80F83C30FFF770
:1013580087FFDBE70120704740B310B5044690F8DB
:101368003D30F3B1022384F83D30214651F8040B97
:10137800FFF778FF012384F8463084F83E3084F87C
:101388003F3084F8403084F8413084F8423084F8A3
:10139800433084F8443084F8453084F83D300020E8
:1013A80010BD80F83C30FFF755F9DBE701207047A6
:1013B80030B4036A23F010030362036A4468826945
:1013C80022F4E6420D6842EA052223F020038D68E4
:1013D80043EA05130E4DA84209D00D4DA8420ED080
:1013E800446082614A688263036230BC704723F0BC
:1013F8008003CD6843EA051323F04003EDE724F4A6
:1014080040644D6944EA85048D6944EA8504E7E748
:101418000000014090F83C30012B28D010B504465C
:10142800012380F83C300C2A1CD8DFE802F0071BA7
:101438001B1B0C1B1B1B111B1B1B16000068FFF73B
:101448008BFE00200FE00068FFF7B2FF00200AE0E3
:101458000068FFF7AFFE002005E00068FFF7DCFE3C
:10146800002000E00120002384F83C3010BD022059
:10147800704738B590F83C30012B66D004460D46CD
:10148800012380F83C300C2A5AD8DFE802F00759CB
:1014980059591B5959593059595944000068FFF78F
:1014A8005BFE2268936943F008039361226893699D
:1014B80023F0040393612268936929690B439361BC
:1014C80000203EE00068FFF773FF2268936943F449
:1014D800006393612268936923F4806393612268AF
:1014E8009369296943EA01239361002029E0006890
:1014F800FFF760FE2268D36943F00803D3612268CE
:10150800D36923F00403D3612268D36929690B43A3
:10151800D361002015E00068FFF77EFE2268D369DA
:1015280043F40063D3612268D36923F48063D361F1
:101538002268D369296943EA0123D361002000E0C6
:101548000120002384F83C3038BD0220FCE700006D
:1015580090F83C30012B34D010B4012380F83C3093
:10156800022380F83D3003685A689C6822F0700CAA
:101578000A6842EA0C025A600368134A934212D07E
:10158800B3F1804F0FD0A2F57C4293420BD002F505
:101598008062934207D002F58062934203D002F53D
:1015A8009A32934204D124F080044A6814439C6020
:1015B800012380F83D30002380F83C30184610BCE9
:1015C80070470220704700BF0000014090F83C308F
:1015D800012B22D0012380F83C30CB6823F44073E0
:1015E8008A68134323F480634A68134323F400632F
:1015F8000A68134323F480530A69134323F40053FE
:101608004A69134323F48043CA6913430268536445
:10161800002380F83C3018467047022070470000CD
:1016280070B50D4E0D4D761BB61006D0002455F83A
:10163800043B01349847A642F9D1094E094D761B5F
:1016480000F0D4F8B61006D0002455F8043B013455
:101658009847A642F9D170BD281800082818000834
:101668003018000828180008830730B548D0541EE1
:10167800002A3FD0CAB2034601E0013C3AD303F83E
:10168800012B9D07F9D1032C2DD9CDB245EA0525AB
:101698000F2C45EA054536D9A4F1100222F00F0CAB
:1016A80003F1200EE6444FEA121C03F1100242E94E
:1016B800045542E9025510327245F8D10CF1010285
:1016C80014F00C0F03EB021204F00F0C13D0ACF162
:1016D800040323F003030433134442F8045B9342E6
:1016E800FBD10CF003042CB1CAB21C4403F8012B43
:1016F8009C42FBD130BD64461346002CF4D1F9E777
:1017080003461446BFE71A46A446E0E7024B13B166
:10171800024800F005B870470000000035170008BF
:10172800002301461A46184600F01AB838B5084B87
:10173800084D5B1B9C1007D0043B1D44013C55F829
:1017480004399847002CF9D1BDE8384000F054B866
:101758003418000830180008704700BF704700BFF1
:101768002DE9F047DFF87CA00646DAF80000984635
:101778000F469146FFF7F0FF1B4B1B68D3F8484113
:1017880024B365681F2D26DC5EB96B1C0235DAF8B8
:101798000000636044F82570FFF7E0FF0020BDE813
:1017A800F08704EB85010123C1F88890D4F88821DB
:1017B800AB401A43022EC4F88821C1F80881E4D14D
:1017C800D4F88C211343C4F88C31DEE703F5A674F2
:1017D800C3F84841D5E7DAF80000FFF7BFFF4FF03C
:1017E800FF30DCE7380400201C180008F8B500BFFB
:1017F800F8BC08BC9E467047F8B500BFF8BC08BCEA
:041808009E46704741
:10180C0000000000000000000102030406070809A4
:04181C001000002098
:08182000E8E9FF7F0100000070
:0818280015170008BD010008BE
:041830009901000812
:101834000024F4000100000010000000000000007B
:1018440000000000FC02002064030020CC03002000
:101854000000000000000000000000000000000084
:101864000000000000000000000000000000000074
:101874000000000000000000000000000000000064
:101884000000000000000000000000000000000054
:101894000000000000000000000000000000000044
:1018A4000000000000000000000000000000000034
:1018B4000000000000000000000000000000000024
:1018C4000000000000000000000000000000000014
:1018D4000000000000000000000000000000000004
:1018E40000000000000000000100000000000000F3
:1018F4000E33CDAB34126DE6ECDE05000B000000B8
:1019040000000000000000000000000000000000D3
:1019140000000000000000000000000000000000C3
:1019240000000000000000000000000000000000B3
:1019340000000000000000000000000000000000A3
:0C1C64000000000000000000A4040020AC
:04000005080007F1F7
:00000001FF
